:040000000DEF00F010
:04000800DDEF0AF02E
:06001800FF0030EF0BF0C9
:0710000000024000030000A4
:10100800B3EC0BF0A9EC0AF0000E2BEC09F057EC4E
:101018000CF049EC0CF00DEC0BF03901A3A717EF1D
:1010280008F019EF08F048EF08F0F1EC09F0216E2C
:10103800300E215E48EF08F073EC0AF00FC025F07F
:1010480010C026F069EF08F073EC0AF00DC025F027
:101058000EC026F069EF08F073EC0AF00BC025F01B
:101068000CC026F069EF08F073EC0AF009C025F00F
:101078000AC026F069EF08F073EC0AF001C025F009
:1010880002C026F069EF08F021504F6E506A5050A8
:10109800000AD8B452EF08F069EF08F04F50010A7F
:1010A800D8B420EF08F0030AD8B428EF08F0010AF2
:1010B800D8B430EF08F0070AD8B438EF08F0010ABE
:1010C800D8B440EF08F069EF08F0FF0E25244F6E02
:1010D800070E2620506E000E4F10056E300E501071
:1010E800066E0650236E05C022F0BE90BB982350B2
:1010F800FDEC0BF02250FDEC0BF0BE80BB88000E1F
:101108002710056EB00E2810066E0650236EBE908E
:10111800BB982350FDEC0BF02250FDEC0BF0BE8089
:10112800BB880BEF08F00DEF00F027C047F0285000
:10113800486E11C049F012504A6E60001FF1F3FF6B
:101148004950F3026F00CCFF4BF06F00D0FF4CF01A
:10115800600023F1F3FF4A50F3026F00CCFF4DF01B
:101168006F00D0FF4EF060001FF1F3FF4A50F3020A
:10117800F3504C26F4504D26600023F1F3FF4950FC
:10118800F302F3504C26F4504D264CC02FF0306A31
:10119800316A326A31C032F030C031F02FC030F0DD
:1011A8002F6A4DC033F0346A356A366A34C036F077
:1011B80033C035F0346A336A4EC037F0386A396A5A
:1011C8003A6A37C03AF0396A386A376A33503710A2
:1011D8003B6E345038103C6E355039103D6E3650E9
:1011E8003A103E6E2F503B103F6E30503C10406E10
:1011F80031503D10416E32503E10426E4B503F1000
:10120800436E4050446E4150456E4250466E0B0E40
:101218002F6E43C030F044C031F045C032F046C0B4
:1012280033F02F661AEF09F022EF09F03334333226
:101238003232313230322F2E15EF09F030C02BF018
:1012480031C02CF032C02DF033C02EF012002E6EBB
:101258003D0114BF32EF09F034EF09F09CEF09F0BB
:101268002E50050DF350010F2B6E6000AFF0F6FF06
:10127800100EF76EF86A08006F00D7FF14FD2E50A5
:10128800050D6F00CCFF2BF0010E2B262B50010F04
:101298002C6E6000B3F0F6FF100EF76EF86A0800C7
:1012A8006F00D7FF15FD2E50050D6F00CCFF2BF0FA
:1012B800020E2B262B50010F2C6E6000B3F0F6FFA8
:1012C800100EF76EF86A0800F5500309166F2E50D5
:1012D800050D6F00CCFF2BF0030E2B262B50010FB2
:1012E8002C6E6000B3F0F6FF100EF76EF86A080077
:1012F8006F00D7FF19FD2E50050D6F00CCFF2BF0A6
:10130800040E2B262B50010F2C6E6000B3F0F6FF55
:10131800100EF76EF86A08006F00D4FF2DF02D4606
:101328002D462D46C4502D18F70B2D18C46E148F5A
:101338001200000EBE6E000EBD6E000EBA6E000EDC
:10134800BB6E000EBC6E060EC66EC268EF0EC36E94
:10135800970EC46EFC0EC56E3A017069670E606F19
:101368005069070E806F4069000E716F000E816F23
:10137800000E516F000E416F000E616F000E5A6F24
:10138800000E5B6F000E6A6F000E6B6F000E7A6FB7
:10139800000E7B6F000E826F000E426F000E526FC0
:1013A800000E626F000E726F436953696369736957
:1013B800070E836F44695469646974690F0E846FFA
:1013C800130EDE6F1E0E136F1F0E156F130E166FA2
:1013D800170EE56F140EDF6F12003901A3A7F7EFA0
:1013E80009F0F9EF09F0F1EF09F0000E246E3D0164
:1013F800F9A701EF0AF003EF0AF010EF0AF02482D0
:1014080002D810EF0AF00500FA6E1D50FD6E1E504E
:10141800FE6EFF6AFA5012003D01F9A316EF0AF0BA
:1014280018EF0AF025EF0AF0248402D825EF0AF015
:101438000500FA6E1B50FD6E1C50FE6EFF6AFA50D6
:1014480012002450D8B42BEF0AF02DEF0AF039EF30
:101458000AF002D839EF0AF00500FA6E1950FD6E4D
:101468001A50FE6EFF6AFA5012003D01E851120050
:10147800000E3E01DE6F000EDF6F000EE06F000E03
:10148800E16F000EE46F000EE56F000EEA6F000ECC
:10149800EC6F000EF16F000EF36F000EF46F000E8C
:1014A800F56F000EF66F000EF76F000EF96F000E65
:1014B800FA6F000EFB6F000EFC6F030EFD6F000E3F
:1014C800FE6F1F0EFF6FC40EF86F3901A19591854D
:1014D800540E2B6E190E2C6E9BEC0CF0120027C0CC
:1014E8002DF028502E6E2EC02CF02C3A0F0E2C16F4
:1014F8002C50600FD96EDA6ADF5065EC0CF02EC004
:101508002CF00F0E2C162C50600FD96EDA6ADF50B3
:1015180065EC0CF02DC02CF02C3A0F0E2C162C502C
:10152800600FD96EDA6ADF5065EC0CF02DC02CF034
:101538000F0E2C162C50600FD96EDA6ADF5065EC4E
:101548000CF00A0E65EC0CF01200000E3D01EC6F79
:10155800000EED6F000EEE6F000EEF6F000EF06FD5
:10156800000EF16FB00EF26F800EF36F000EF46F85
:10157800070EF56F000EF66F000EF76F000EF86F8E
:10158800000EF96F000EFA6F4E0E2B6E190E2C6EB0
:101598008CEC0CF04C0E2B6E190E2C6E87EC0CF0AC
:1015A800500E2B6E190E2C6E91EC0CF0000E246E62
:1015B80012006F00E8FF29F06F00ECFF2AF03901F4
:1015C80093AFE9EF0AF0EBEF0AF0F6EF0AF0A3AFFA
:1015D800F0EF0AF0F2EF0AF0F6EF0AF083EC0BF006
:1015E80006EF0BF091A5FBEF0AF0FDEF0AF006EF0E
:1015F8000BF0A1A502EF0BF004EF0BF006EF0BF0D8
:101608009BEC0BF06000ABF0FBFF6000A7F0FAFF6B
:1016180011003BEC0CF02BC00FF02CC010F02DEC9F
:101628000CF02BC00DF02CC00EF01EEC0CF02FC0EF
:101638000BF030C00CF00FEC0CF02FC009F030C0EC
:101648000AF099EC08F02BC001F02CC002F02DC074
:1016580003F02EC004F01200FE0EF66E180EF76EA0
:10166800000EF86E00EE60F010EE10F009006F004A
:10167800D7FFEEFFE550E150F9E100EE01F0280E4A
:10168800EE6AE806FDE1080ED56E000ED66E000E75
:10169800D76E000104EF08F02CBE55EF0BF057EFA2
:1016A8000BF05DEF0BF02BC02BF02CC02CF069EF8A
:1016B8000BF02BC02DF02CC02EF02D1E2E1E2D4A07
:1016C8002E2A2DC02BF02EC02CF012002F6E600099
:1016D800BFF0F1FE3E01F88FF89DF881F8B177EF81
:1016E8000BF079EF0BF072EF0BF0F0512E6E2D6AC4
:1016F800EF512D242B6E000E2E202C6E1200390176
:10170800A39F17501810D8B48CEF0BF08EEF0BF086
:101718009AEF0BF002D89AEF0BF00500FA6E17500B
:10172800FD6E1850FE6EFF6AFA5012001200390161
:10173800A1951F502010D8B4A4EF0BF0A6EF0BF022
:10174800B2EF0BF002D8B2EF0BF00500FA6E1F50A3
:10175800FD6E2050FE6EFF6AFA5012001200A4ECD3
:101768000CF0EBEC0BF09DEC09F0C6EC0BF0A0ECE8
:101778000CF03CEC0AF0D9EC0BF0A9EC0AF072EC96
:101788000CF01200200E3901D96F000EDB6F000E2D
:10179800DD6F020EDF6F000EDE6FDCA1D6EF0BF0FF
:1017A800D8EF0BF0D1EF0BF01200420EB96EC70E56
:1017B800B76E000EB66E3901A39F938F520E2B6E33
:1017C800190E2C6E96EC0CF0810EB86E1200000EFD
:1017D8003901C06F000EC16F000EC26F000EC36FDB
:1017E800000EC46F000EC56F000EC66F000EC76FE7
:1017F80012002B6E010E3D01126F6000AFF011FD5B
:101808003901A2A90AEF0CF00CEF0CF004EF0CF070
:101818003D011051120011C02BF012C02CF050ECF9
:101828000BF02BC007F02CC008F007C02FF008C041
:1018380030F0120027C02BF028C02CF050EC0BF031
:101848002BC007F02CC008F007C02FF008C030F0FC
:1018580012001150275C076E12502858086E083481
:1018680008302D6E07302B6E2DC02CF01200115051
:101878002724076E12502820086E083408302D6E71
:1018880007302B6E2DC02CF01200010E6AEC0BF005
:101898002BC013F02CC014F0010E1324116EF80E97
:1018A8001420126E1200000E6AEC0BF02BC015F01B
:1018B8002CC016F0010E1524276EF80E1620286E7F
:1018C80012002B6E3901A3A96CEF0CF06EEF0CF02F
:1018D80066EF0CF06000AFF0EAFD1200020E3D0169
:1018E800146F400E156F000E166F000E1C6F030E5E
:1018F800196FC496120030313233343536373839DF
:101908004142434445462BC01BF02CC01CF012003A
:101918002BC01DF02CC01EF012002BC019F02CC0DB
:101928001AF012002BC017F02CC018F012002BC0B0
:101938001FF02CC020F01200820E3E01C16F120071
:0E194800D29A120012001200120012001200B9
:020000040030CA
:0A000000AAFFF7FF9FFFFFFFFFFFBD
:00000001FF
